{
  "contractName": "Tree",
  "abi": [
    {
      "inputs": [
        {
          "internalType": "string",
          "name": "_name",
          "type": "string"
        }
      ],
      "stateMutability": "nonpayable",
      "type": "constructor"
    },
    {
      "anonymous": false,
      "inputs": [
        {
          "indexed": false,
          "internalType": "uint256",
          "name": "messageId",
          "type": "uint256"
        },
        {
          "indexed": true,
          "internalType": "address",
          "name": "ownerAddress",
          "type": "address"
        },
        {
          "components": [
            {
              "internalType": "address",
              "name": "owner",
              "type": "address"
            },
            {
              "internalType": "string",
              "name": "x",
              "type": "string"
            },
            {
              "internalType": "string",
              "name": "y",
              "type": "string"
            },
            {
              "internalType": "string",
              "name": "message",
              "type": "string"
            }
          ],
          "indexed": false,
          "internalType": "struct Tree.Message",
          "name": "message",
          "type": "tuple"
        }
      ],
      "name": "MessageAdded",
      "type": "event"
    },
    {
      "anonymous": false,
      "inputs": [
        {
          "indexed": false,
          "internalType": "uint256",
          "name": "messageId",
          "type": "uint256"
        },
        {
          "indexed": false,
          "internalType": "address",
          "name": "ownerAddress",
          "type": "address"
        }
      ],
      "name": "MessageDeleted",
      "type": "event"
    },
    {
      "inputs": [],
      "name": "UNAUTHORIZED",
      "outputs": [
        {
          "internalType": "string",
          "name": "",
          "type": "string"
        }
      ],
      "stateMutability": "view",
      "type": "function"
    },
    {
      "inputs": [
        {
          "internalType": "address",
          "name": "",
          "type": "address"
        },
        {
          "internalType": "uint256",
          "name": "",
          "type": "uint256"
        }
      ],
      "name": "addressToMessages",
      "outputs": [
        {
          "internalType": "address",
          "name": "owner",
          "type": "address"
        },
        {
          "internalType": "string",
          "name": "x",
          "type": "string"
        },
        {
          "internalType": "string",
          "name": "y",
          "type": "string"
        },
        {
          "internalType": "string",
          "name": "message",
          "type": "string"
        }
      ],
      "stateMutability": "view",
      "type": "function"
    },
    {
      "inputs": [],
      "name": "currentMessageCount",
      "outputs": [
        {
          "internalType": "uint256",
          "name": "",
          "type": "uint256"
        }
      ],
      "stateMutability": "view",
      "type": "function"
    },
    {
      "inputs": [
        {
          "internalType": "uint256",
          "name": "",
          "type": "uint256"
        }
      ],
      "name": "messages",
      "outputs": [
        {
          "internalType": "address",
          "name": "owner",
          "type": "address"
        },
        {
          "internalType": "string",
          "name": "x",
          "type": "string"
        },
        {
          "internalType": "string",
          "name": "y",
          "type": "string"
        },
        {
          "internalType": "string",
          "name": "message",
          "type": "string"
        }
      ],
      "stateMutability": "view",
      "type": "function"
    },
    {
      "inputs": [],
      "name": "owner",
      "outputs": [
        {
          "internalType": "address",
          "name": "",
          "type": "address"
        }
      ],
      "stateMutability": "view",
      "type": "function"
    },
    {
      "inputs": [
        {
          "internalType": "string",
          "name": "x",
          "type": "string"
        },
        {
          "internalType": "string",
          "name": "y",
          "type": "string"
        },
        {
          "internalType": "string",
          "name": "message",
          "type": "string"
        }
      ],
      "name": "addMessage",
      "outputs": [],
      "stateMutability": "nonpayable",
      "type": "function"
    },
    {
      "inputs": [
        {
          "internalType": "uint256",
          "name": "messageId",
          "type": "uint256"
        }
      ],
      "name": "deleteMessage",
      "outputs": [],
      "stateMutability": "nonpayable",
      "type": "function"
    }
  ],
  "bytecode": "0x60806040523480156200001157600080fd5b50604051620016f2380380620016f28339818101604052810190620000379190620002ec565b80600490805190602001906200004f9291906200009f565b506000600381905550336000806101000a81548173ffffffffffffffffffffffffffffffffffffffff021916908373ffffffffffffffffffffffffffffffffffffffff16021790555050620003a2565b828054620000ad906200036c565b90600052602060002090601f016020900481019282620000d157600085556200011d565b82601f10620000ec57805160ff19168380011785556200011d565b828001600101855582156200011d579182015b828111156200011c578251825591602001919060010190620000ff565b5b5090506200012c919062000130565b5090565b5b808211156200014b57600081600090555060010162000131565b5090565b6000604051905090565b600080fd5b600080fd5b600080fd5b600080fd5b6000601f19601f8301169050919050565b7f4e487b7100000000000000000000000000000000000000000000000000000000600052604160045260246000fd5b620001b8826200016d565b810181811067ffffffffffffffff82111715620001da57620001d96200017e565b5b80604052505050565b6000620001ef6200014f565b9050620001fd8282620001ad565b919050565b600067ffffffffffffffff82111562000220576200021f6200017e565b5b6200022b826200016d565b9050602081019050919050565b60005b83811015620002585780820151818401526020810190506200023b565b8381111562000268576000848401525b50505050565b6000620002856200027f8462000202565b620001e3565b905082815260208101848484011115620002a457620002a362000168565b5b620002b184828562000238565b509392505050565b600082601f830112620002d157620002d062000163565b5b8151620002e38482602086016200026e565b91505092915050565b60006020828403121562000305576200030462000159565b5b600082015167ffffffffffffffff8111156200032657620003256200015e565b5b6200033484828501620002b9565b91505092915050565b7f4e487b7100000000000000000000000000000000000000000000000000000000600052602260045260246000fd5b600060028204905060018216806200038557607f821691505b602082108114156200039c576200039b6200033d565b5b50919050565b61134080620003b26000396000f3fe608060405234801561001057600080fd5b506004361061007d5760003560e01c8063b888690a1161005b578063b888690a146100f1578063b98464b31461010d578063db115ae714610129578063f62a39851461015c5761007d565b8063075fd2b1146100825780630d80fefd146100a05780638da5cb5b146100d3575b600080fd5b61008a61017a565b6040516100979190610cc0565b60405180910390f35b6100ba60048036038101906100b59190610d2c565b6101b3565b6040516100ca9493929190610d9a565b60405180910390f35b6100db6103ab565b6040516100e89190610df4565b60405180910390f35b61010b60048036038101906101069190610d2c565b6103cf565b005b61012760048036038101906101229190610f44565b61064c565b005b610143600480360381019061013e9190611017565b6108fb565b6040516101539493929190610d9a565b60405180910390f35b610164610b00565b6040516101719190611066565b60405180910390f35b6040518060400160405280600681526020017f303139303031000000000000000000000000000000000000000000000000000081525081565b600281815481106101c357600080fd5b90600052602060002090600402016000915090508060000160009054906101000a900473ffffffffffffffffffffffffffffffffffffffff169080600101805461020c906110b0565b80601f0160208091040260200160405190810160405280929190818152602001828054610238906110b0565b80156102855780601f1061025a57610100808354040283529160200191610285565b820191906000526020600020905b81548152906001019060200180831161026857829003601f168201915b50505050509080600201805461029a906110b0565b80601f01602080910402602001604051908101604052809291908181526020018280546102c6906110b0565b80156103135780601f106102e857610100808354040283529160200191610313565b820191906000526020600020905b8154815290600101906020018083116102f657829003601f168201915b505050505090806003018054610328906110b0565b80601f0160208091040260200160405190810160405280929190818152602001828054610354906110b0565b80156103a15780601f10610376576101008083540402835291602001916103a1565b820191906000526020600020905b81548152906001019060200180831161038457829003601f168201915b5050505050905084565b60008054906101000a900473ffffffffffffffffffffffffffffffffffffffff1681565b806000600282815481106103e6576103e56110e2565b5b906000526020600020906004020160000160009054906101000a900473ffffffffffffffffffffffffffffffffffffffff1690508073ffffffffffffffffffffffffffffffffffffffff163373ffffffffffffffffffffffffffffffffffffffff16146040518060400160405280600681526020017f3031393030310000000000000000000000000000000000000000000000000000815250906104c0576040517f08c379a00000000000000000000000000000000000000000000000000000000081526004016104b79190610cc0565b60405180910390fd5b50600283815481106104d5576104d46110e2565b5b9060005260206000209060040201600080820160006101000a81549073ffffffffffffffffffffffffffffffffffffffff021916905560018201600061051b9190610b06565b60028201600061052b9190610b06565b60038201600061053b9190610b06565b5050600160003373ffffffffffffffffffffffffffffffffffffffff1673ffffffffffffffffffffffffffffffffffffffff168152602001908152602001600020838154811061058e5761058d6110e2565b5b9060005260206000209060040201600080820160006101000a81549073ffffffffffffffffffffffffffffffffffffffff02191690556001820160006105d49190610b06565b6002820160006105e49190610b06565b6003820160006105f49190610b06565b50506003600081548092919061060990611140565b91905055507ffb2787660bc2cbdfc289209f8fc92a07a17109a8f520025df91f322e51da7947833360405161063f92919061116a565b60405180910390a1505050565b610654610b46565b33816000019073ffffffffffffffffffffffffffffffffffffffff16908173ffffffffffffffffffffffffffffffffffffffff1681525050838160200181905250828160400181905250818160600181905250600281908060018154018082558091505060019003906000526020600020906004020160009091909190915060008201518160000160006101000a81548173ffffffffffffffffffffffffffffffffffffffff021916908373ffffffffffffffffffffffffffffffffffffffff1602179055506020820151816001019080519060200190610736929190610b84565b506040820151816002019080519060200190610753929190610b84565b506060820151816003019080519060200190610770929190610b84565b505050600160003373ffffffffffffffffffffffffffffffffffffffff1673ffffffffffffffffffffffffffffffffffffffff16815260200190815260200160002081908060018154018082558091505060019003906000526020600020906004020160009091909190915060008201518160000160006101000a81548173ffffffffffffffffffffffffffffffffffffffff021916908373ffffffffffffffffffffffffffffffffffffffff160217905550602082015181600101908051906020019061083f929190610b84565b50604082015181600201908051906020019061085c929190610b84565b506060820151816003019080519060200190610879929190610b84565b5050506003600081548092919061088f90611193565b91905055503373ffffffffffffffffffffffffffffffffffffffff167fac190ff259ef809cea8abdb3a69292f49646db1e1ccceadc171e8f0a2637a69a60016002805490506108de91906111dc565b836040516108ed9291906112da565b60405180910390a250505050565b6001602052816000526040600020818154811061091757600080fd5b9060005260206000209060040201600091509150508060000160009054906101000a900473ffffffffffffffffffffffffffffffffffffffff1690806001018054610961906110b0565b80601f016020809104026020016040519081016040528092919081815260200182805461098d906110b0565b80156109da5780601f106109af576101008083540402835291602001916109da565b820191906000526020600020905b8154815290600101906020018083116109bd57829003601f168201915b5050505050908060020180546109ef906110b0565b80601f0160208091040260200160405190810160405280929190818152602001828054610a1b906110b0565b8015610a685780601f10610a3d57610100808354040283529160200191610a68565b820191906000526020600020905b815481529060010190602001808311610a4b57829003601f168201915b505050505090806003018054610a7d906110b0565b80601f0160208091040260200160405190810160405280929190818152602001828054610aa9906110b0565b8015610af65780601f10610acb57610100808354040283529160200191610af6565b820191906000526020600020905b815481529060010190602001808311610ad957829003601f168201915b5050505050905084565b60035481565b508054610b12906110b0565b6000825580601f10610b245750610b43565b601f016020900490600052602060002090810190610b429190610c0a565b5b50565b6040518060800160405280600073ffffffffffffffffffffffffffffffffffffffff1681526020016060815260200160608152602001606081525090565b828054610b90906110b0565b90600052602060002090601f016020900481019282610bb25760008555610bf9565b82601f10610bcb57805160ff1916838001178555610bf9565b82800160010185558215610bf9579182015b82811115610bf8578251825591602001919060010190610bdd565b5b509050610c069190610c0a565b5090565b5b80821115610c23576000816000905550600101610c0b565b5090565b600081519050919050565b600082825260208201905092915050565b60005b83811015610c61578082015181840152602081019050610c46565b83811115610c70576000848401525b50505050565b6000601f19601f8301169050919050565b6000610c9282610c27565b610c9c8185610c32565b9350610cac818560208601610c43565b610cb581610c76565b840191505092915050565b60006020820190508181036000830152610cda8184610c87565b905092915050565b6000604051905090565b600080fd5b600080fd5b6000819050919050565b610d0981610cf6565b8114610d1457600080fd5b50565b600081359050610d2681610d00565b92915050565b600060208284031215610d4257610d41610cec565b5b6000610d5084828501610d17565b91505092915050565b600073ffffffffffffffffffffffffffffffffffffffff82169050919050565b6000610d8482610d59565b9050919050565b610d9481610d79565b82525050565b6000608082019050610daf6000830187610d8b565b8181036020830152610dc18186610c87565b90508181036040830152610dd58185610c87565b90508181036060830152610de98184610c87565b905095945050505050565b6000602082019050610e096000830184610d8b565b92915050565b600080fd5b600080fd5b7f4e487b7100000000000000000000000000000000000000000000000000000000600052604160045260246000fd5b610e5182610c76565b810181811067ffffffffffffffff82111715610e7057610e6f610e19565b5b80604052505050565b6000610e83610ce2565b9050610e8f8282610e48565b919050565b600067ffffffffffffffff821115610eaf57610eae610e19565b5b610eb882610c76565b9050602081019050919050565b82818337600083830152505050565b6000610ee7610ee284610e94565b610e79565b905082815260208101848484011115610f0357610f02610e14565b5b610f0e848285610ec5565b509392505050565b600082601f830112610f2b57610f2a610e0f565b5b8135610f3b848260208601610ed4565b91505092915050565b600080600060608486031215610f5d57610f5c610cec565b5b600084013567ffffffffffffffff811115610f7b57610f7a610cf1565b5b610f8786828701610f16565b935050602084013567ffffffffffffffff811115610fa857610fa7610cf1565b5b610fb486828701610f16565b925050604084013567ffffffffffffffff811115610fd557610fd4610cf1565b5b610fe186828701610f16565b9150509250925092565b610ff481610d79565b8114610fff57600080fd5b50565b60008135905061101181610feb565b92915050565b6000806040838503121561102e5761102d610cec565b5b600061103c85828601611002565b925050602061104d85828601610d17565b9150509250929050565b61106081610cf6565b82525050565b600060208201905061107b6000830184611057565b92915050565b7f4e487b7100000000000000000000000000000000000000000000000000000000600052602260045260246000fd5b600060028204905060018216806110c857607f821691505b602082108114156110dc576110db611081565b5b50919050565b7f4e487b7100000000000000000000000000000000000000000000000000000000600052603260045260246000fd5b7f4e487b7100000000000000000000000000000000000000000000000000000000600052601160045260246000fd5b600061114b82610cf6565b9150600082141561115f5761115e611111565b5b600182039050919050565b600060408201905061117f6000830185611057565b61118c6020830184610d8b565b9392505050565b600061119e82610cf6565b91507fffffffffffffffffffffffffffffffffffffffffffffffffffffffffffffffff8214156111d1576111d0611111565b5b600182019050919050565b60006111e782610cf6565b91506111f283610cf6565b92508282101561120557611204611111565b5b828203905092915050565b61121981610d79565b82525050565b600082825260208201905092915050565b600061123b82610c27565b611245818561121f565b9350611255818560208601610c43565b61125e81610c76565b840191505092915050565b60006080830160008301516112816000860182611210565b50602083015184820360208601526112998282611230565b915050604083015184820360408601526112b38282611230565b915050606083015184820360608601526112cd8282611230565b9150508091505092915050565b60006040820190506112ef6000830185611057565b81810360208301526113018184611269565b9050939250505056fea2646970667358221220e6cf872b7258498534b784f31fb6533ddddc03062a849da484c7a977a1ad952a64736f6c634300080a0033",
  "immutableReferences": {},
  "source": "pragma solidity ^0.8.10;\r\n\r\ncontract Tree {\r\n\r\n    struct Message {\r\n        address owner;\r\n        string x;\r\n        string y;\r\n        string message;\r\n    }\r\n\r\n    string public constant UNAUTHORIZED = \"019001\";\r\n\r\n    address public owner;\r\n    mapping(address => Message[]) public addressToMessages;\r\n    Message[] public messages;\r\n    uint public currentMessageCount;\r\n\r\n    string name;\r\n\r\n    event MessageAdded(uint messageId, address indexed ownerAddress, Message message);\r\n    event MessageDeleted(uint messageId, address ownerAddress);\r\n\r\n    constructor(string memory _name){\r\n        name = _name;\r\n        currentMessageCount = 0;\r\n        owner = msg.sender;\r\n    }\r\n\r\n\r\n    function addMessage(string memory x, string memory y, string memory message) public {\r\n        Message memory _message;\r\n        _message.owner = msg.sender;\r\n        _message.x = x;\r\n        _message.y = y;\r\n        _message.message = message;\r\n        messages.push(_message);\r\n        addressToMessages[msg.sender].push(_message);\r\n\r\n        currentMessageCount ++;\r\n\r\n        emit MessageAdded(messages.length - 1, msg.sender, _message);\r\n    }\r\n\r\n    function deleteMessage(uint messageId) public onlyMessageOwner(messageId) {\r\n        delete messages[messageId];\r\n        delete addressToMessages[msg.sender][messageId];\r\n\r\n        currentMessageCount --;\r\n\r\n        emit MessageDeleted(messageId, msg.sender);\r\n    }\r\n\r\n    modifier onlyMessageOwner(uint messageId) {\r\n        address messageOwner = messages[messageId].owner;\r\n        require(msg.sender == messageOwner, UNAUTHORIZED);\r\n        _;\r\n    }\r\n\r\n\r\n}",
  "sourcePath": "C:\\Github Code\\342\\Contracts\\342-contracts\\contracts\\Tree.sol",
  "compiler": {
    "name": "solc",
    "version": "0.8.10+commit.fc410830.Emscripten.clang"
  },
  "schemaVersion": "3.4.3",
  "updatedAt": "2022-01-31T15:14:57.328Z",
  "devdoc": {
    "kind": "dev",
    "methods": {},
    "version": 1
  },
  "userdoc": {
    "kind": "user",
    "methods": {},
    "version": 1
  }
}